:020000040800F2
:10000000B014002045010008251500084913000818
:1000100021150008F10700089F2A000800000000D1
:100020000000000000000000000000001F23000886
:10003000910C0008000000004B1D0008512300082F
:10004000A32A0008491D000853230008C720000800
:10005000AD0E000809200008930C0008990C000858
:10006000DD0C0008DF0C0008E10C0008F9070008AF
:10007000FB070008FD070008FF070008010800084B
:100080000308000805080008E50500089B2A000889
:100090009D2A0008F5070008F7070008E50C00088E
:1000A000552300085D230008592300085723000842
:1000B000DD230008DF230008E12300084F130008B8
:1000C0004D1300085313000851130008CB200008FB
:1000D000CD20000829270008C92700086928000842
:1000E000950C0008C5200008992A0008E92300089B
:1000F000EF230008ED230008EB230008E7050008C4
:10010000E90E0008C9200008E3230008CF200008FA
:10011000292500082B250008E5230008E72300080F
:1001200007080008090800080B0800080D08000867
:10013000DFF80CD000F00AFA00480047612E0008F2
:10014000B0140020004800473101000830B50546D2
:100150002A460B4612F8010B13F8014B08B1A042D6
:10016000F8D01CB1002802D06D1CF1E7284630BD44
:10017000421C10F8011B0029FBD1801A70472DE9A1
:10018000FE4F81EA030404F0004421F00041009492
:100190004FF0000B23F0004350EA01045ED052EA16
:1001A00003045BD0C3F30A54C1F30A552C44A4F2F0
:1001B000F3340194A0FB0254C1F3130141F4801104
:1001C000C3F3130343F4801301FB024400FB034E0B
:1001D000840A970A44EA815447EA8357A4FB0768D4
:1001E00002958D0A05FB07854FEA932C04FB0C54FE
:1001F0002705029D4FEA065847EA1637B5EB080572
:100200006EEB070C870E920E47EA811742EA8312C3
:10021000A7FB0201B6EB0B0164EB00042B0D43EAD4
:100220000C335E1844EB1C50DA465146E7FB0201E2
:10023000C5F313044FEA0B3343EA14534FEA043275
:10024000019C43EA0603A4F10C040294009CCDE94E
:1002500000B400F02CF903B0BDE8F08F0020014697
:10026000F9E72DE9F04D81EA030404F0004B21F099
:10027000004514464FF0000A23F0004150EA050201
:1002800020D054EA01021DD0C5F30A570246C5F337
:100290001303C1F31300C1F30A5640F4801543F46D
:1002A0008013A7EB0608101BD64608F2FD3873EB47
:1002B000050002D308F1010801E092185B41B8F192
:1002C000000F03DA00200146BDE8F08D00204FF456
:1002D0008011064684460EE0171B73EB050705D315
:1002E000121B63EB050306434CEA010C49084FEA75
:1002F000300092185B4150EA0107EDD152EA030049
:1003000012D082EA040083EA0501084305D0101BDD
:10031000AB4106D20122002306E000224FF0004349
:1003200002E06FF0010253101AEB06004CEB08518B
:1003300010EB0A0041EB0B01BDE8F04D00F0A8B84E
:10034000C10F80EAE0700844CA079623002100F03C
:1003500071B80EB540F2334102910021CDE9001190
:100360000A460B4600F0A3F803B000BD70B5C1F318
:100370000A5201F000450024C1F3130140F2FF339B
:1003800041F480119A4201DA002070BD40F23343FB
:100390009A42A2F2334203DC524200F032F800E00B
:1003A00090402C43F1D0404270BDC1F30A5210B5C9
:1003B000C1F3130140F2FF3341F480119A4201DA94
:1003C000002010BD40F233439A42A2F2334203DCD4
:1003D000524200F016F810BD904010BD00F00042EF
:1003E00030F000400AD0C10D01F56071C0F3160075
:1003F00042EA0151C20840071143704700200146FC
:100400007047202A04DB203A21FA02F000217047CD
:1004100021FA02F3D040C2F120029140084319466C
:1004200070470029A8BF7047401C490008BF20F052
:100430000100704710B4B0FA80FC00FA0CF050EAEA
:10044000010404BF10BC704749B1CCF1200421FA6B
:1004500004F411FA0CF118BF012121430843A3EB66
:100460000C01CB1D4FEA00614FEA102042BF002073
:1004700010BC704700EBC35010440029A4BF10BC4F
:100480007047401C490008BF20F0010010BC7047B5
:1004900010B5141E73F1000408DA401C41F100018C
:1004A00092185B411A4301D120F0010010BD2DE9E3
:1004B000F04D92469B4611B1B1FA81F202E0B0FADA
:1004C00080F22032904600F053F804460F4640EA8E
:1004D0000A0041EA0B0153465A46084313D011461D
:1004E00053EA010019D0C8F140025046FFF789FFD6
:1004F00005460E4650465946424600F039F8084334
:1005000005D0012004E020463946BDE8F08D0020EA
:10051000054346EAE0762C4337430A986305E40A2C
:10052000A0EB08000022FD0A44EA47540A3002D535
:1005300000200146E9E7010510196941DDE9084598
:1005400000196941BDE8F04DA2E70000064C074DD7
:1005500006E0E06840F0010394E807009847103493
:10056000AC42F6D3FFF7E8FD985C0008B85C0008E1
:10057000202A04DB203A00FA02F100207047914063
:10058000C2F1200320FA03F319439040704770B57D
:100590008C1810F8015B15F0070301D110F8013B2E
:1005A0002A1106D110F8012B03E010F8016B01F8B5
:1005B000016B5B1EF9D12B0705D40023521E0DD40D
:1005C00001F8013BFAE710F8013BCB1A921C03E05B
:1005D00013F8015B01F8015B521EF9D5A142D8D393
:1005E000002070BD7047704721B1826842F001025F
:1005F000826003E0826822F001028260704700009E
:1006000010B504461548204430B1B0F5806F0DD0C8
:10061000B0F5C05F1ED113E00121480201F0C2FB1A
:1006200000214FF4007001F0BDFB14E001218802AD
:1006300001F0B8FB00214FF4806001F0B3FB0AE049
:100640000121C80301F0AEFB00214FF4004001F08E
:10065000A9FB00E000BF00BF10BD000000DCFEBF32
:10066000014600208A6802F004020AB1012000E07D
:10067000002070470146C86C80B2704702460020D7
:1006800013680B400BB1012000E0002070470146C9
:1006900000208A6802F008020AB1012000E0002070
:1006A0007047000030B502460020002350680F4C10
:1006B00020400D790C6844EA05242043506090687E
:1006C0000B4C2040D1E902542C434D7944EA4504B7
:1006D00020439060D06A20F470000C7C641E1C43A0
:1006E000E3B240EA0350D06230BD0000FFFEF0FFED
:1006F000FDF7F1FFF0B504460D4600200021092D5D
:1007000011DDE068A5F10A0606EB4607072606FAA2
:1007100007F18843A5F10A0606EB460603FA06F13F
:100720000843E0600CE0206905EB4507072606FA60
:1007300007F1884305EB450603FA06F108432061FB
:10074000072A0FDA606B561E06EB86071F2606FA8D
:1007500007F18843561E06EB860605FA06F10843A4
:10076000606322E00D2A0FDA206BD61F06EB8607A6
:100770001F2606FA07F18843D61F06EB860605FA00
:1007800006F10843206310E0E06AA2F10D0606EBD3
:1007900086071F2606FA07F18843A2F10D0606EB2D
:1007A000860605FA06F10843E062F0BD816841F073
:1007B00008018160704721B1826842F4A002826022
:1007C00003E0826822F4A00282607047816841F0F1
:1007D0000401816070470000014908607047000013
:1007E00088860D42014908607047000000860D426E
:1007F00000BFFEE77047704770477047704770470B
:1008000070477047704770477047704770470000E7
:1008100010B5002400F0E2F804E0601CC4B201202E
:1008200002F08AF91B48006800F0704000F1007087
:1008300018490968C1F3130100EB41101649097802
:1008400050F8210008B1C82CE7DBC82C01DB0120DF
:1008500010BD002404E0601CC4B2012002F06CF959
:100860000C48006800F0704000F100700949096808
:10087000C1F3130100EB41100749097850F821003A
:1008800008B9F02CE7DBF02C01DB0120E0E70020C9
:10089000DEE70000980200209C0200202DE9F34FC3
:1008A00083B001229DF810109DF80C0002F0EAFFC1
:1008B0009DF80C0028B93F483F490860001F3F4998
:1008C00008609DF80C00012805D13D483A490860B0
:1008D000001F3A4908609DF80C00022805D13948EC
:1008E00035490860001F354908609DF810003649F9
:1008F00008703648007848B93448067001203349FA
:10090000087000F0BFF81E2002F034F900F050F932
:1009100000F01CF9FFF77CFFCC2000F055F9BE2059
:1009200000F052F900F000F9824600F0FDF80546AB
:10093000072D07DDE843C5B26FEA0A0000F0FF0AA1
:10094000002600E001262C46200204B204EB0A0037
:1009500004B22046FFF7F4FC8346FFF73FFD002278
:100960001B4BCDE90001FFF70AFC0746FFF7FEFC31
:1009700004B2552C1BDA17480088FF2801D115490D
:100980000C8014480088A04205DA12480088201A1A
:1009900000F0FF0904E00F480088001B00F0FF0989
:1009A000B9F1020F03DC0C490C700A490C8005B048
:1009B000BDE8F08F0C08014094020020980200204E
:1009C0000C0C01400C1001409C0200209E020020F3
:1009D0000000B03FA00200209D02002008B50020CA
:1009E00000900E4800680E49884201D10020009016
:1009F0000A4800680B49884201D10120009007484D
:100A000000680949884201D102200090022207486B
:100A100001789DF8000002F035FF08BD9402002027
:100A20000C0801400C0C01400C1001409C020020FD
:100A300008B5002000900E4800680E49884201D198
:100A4000002000900A4800680B49884201D101202B
:100A50000090074800680949884201D102200090AF
:100A60000022074801789DF8000002F00BFF08BD46
:100A7000940200200C0801400C0C01400C100140B5
:100A80009C02002010B500F061F8FFF7C1FE10BD18
:100A900010B5FFF7CDFF00212048006800F070403E
:100AA00000F100701D4A1268C2F3130200EB4210FD
:100AB0001B4A127840F82210022002F03DF8012172
:100AC0001648006800F0704000F10070134A126888
:100AD000C2F3130200EB4210114A127840F82210C0
:100AE000FFF77CFF0C2002F027F80E48006800F0AA
:100AF000704000F100700B490968C1F3130100EB6D
:100B000041100749097850F8210008B1012400E09C
:100B10000024322002F010F8204610BD940200207C
:100B20009C0200209802002070B50026012508E0F4
:100B3000FFF7AEFF0446E00140EA6600C6B2681C5B
:100B4000C5B2082DF4DD304670BD000010B5FFF7CA
:100B50006FFF00211448006800F0704000F1007041
:100B6000114A1268C2F3130200EB42100F4A1278C6
:100B700040F8221040F2EE2001F0DEFF01210A4889
:100B8000006800F0704000F10070074A1268C2F37C
:100B9000130200EB4210054A127840F822100F2091
:100BA00001F0CAFF10BD0000940200209C0200204A
:100BB00010B5FFF7CBFFFFF72BFECC2000F004F8B9
:100BC000442000F001F810BD70B50446FFF730FF77
:100BD000012556E004F00106641046B300212A48BE
:100BE000006800F0704000F10070274A1268C2F3FC
:100BF000130200EB4210254A127840F8221002201E
:100C000001F09AFF01212048006800F0704000F1D7
:100C100000701D4A1268C2F3130200EB42101B4A17
:100C2000127840F822103C2001F086FF27E00021D6
:100C30001548006800F0704000F10070124A126818
:100C4000C2F3130200EB4210104A127840F822104F
:100C50003C2001F071FF01210B48006800F070405A
:100C600000F10070084A1268C2F3130200EB421050
:100C7000064A127840F82210022001F05DFF681C3D
:100C8000C5B2082DA6DD70BD940200209C02002094
:100C9000704770477047000010B5022000F04AF816
:100CA00098B1022000F040F80848006868B9084888
:100CB000007850B901F070FB012005490870002050
:100CC0000449087009200449087010BD040121423C
:100CD00072010020700100207101002070477047F0
:100CE0007047000010B5202000F024F898B12020B3
:100CF00000F01AF80848006868B90848007850B948
:100D000001F04AFB012005490870002004490870E1
:100D100009200449087010BD140121427801002007
:100D2000760100207701002001490860704700002B
:100D300014040140014600200022074B1B6803EA0F
:100D40000102054B14331B680B4013B10AB101209B
:100D500000E0002070470000000401408179002974
:100D600046D02A49096802689143284A1160111D3A
:100D7000096802689143254A121D11600179244ACD
:100D80001144D1F80014026811430279204B1A442F
:100D9000C2F800141D4908310968026891431B4AD2
:100DA00008321160111D096802689143174A0C321C
:100DB0001160417910290ED1111F09680268114391
:100DC000124A08321160111D0968026811430F4A66
:100DD0000C32116018E041790D4A1144D1F8001429
:100DE0000268114342790A4B1A44C2F800140BE01E
:100DF0000179074A1144D1F800140268914302793D
:100E0000034B1A44C2F8001470470000000401406C
:100E1000000001402DE9FE4F07460D4690461E4654
:100E2000DDE90C9A4FF0000B0024384600F056FA2A
:100E30008346284600F03EFA0446002342462946EF
:100E4000384600F05FFA0121084600F09BFF134A84
:100E5000115D134A12F80B0000F0D6F8114850F853
:100E60002400019000208DF808008DF80960012011
:100E70008DF80A0001A8FFF771FF0B48005D8DF89F
:100E800000008DF801908DF802A001208DF803007C
:100E9000684600F04FFBBDE8FE8F0000F33E0008FF
:100EA000EC3E0008043F0008443F00087047000083
:100EB0000549096821F01001034A116011460968CB
:100EC0000143116070470000002002400549096895
:100ED00001F03801034A11601146096801431160AD
:100EE00070470000002002407047000008B54FF630
:100EF000FF70ADF8000014208DF8030003208DF87A
:100F000002006946174800F09FF84FF6FF70ADF8F1
:100F1000000014208DF8030003208DF802006946BC
:100F2000114800F091F84FF6FF70ADF80000142062
:100F30008DF8030003208DF8020069460B4800F08D
:100F400083F84FF6FF71084800F044F94FF6FF713F
:100F5000044800F03FF94FF6FF71044800F03AF9F9
:100F600008BD0000000C01400008014000100140D5
:100F700010B501210D2000F005FF0121214800F0EE
:100F8000EDF801211C2000F0FDFE0121112000F0F0
:100F9000F9FE0020FFF726FC0020FFF71DFC0222CF
:100FA0000821002002F06EFC02220821012002F03C
:100FB00069FC02220921012002F064FC00220C21BC
:100FC000012002F05FFC00220D21012002F05AFCFA
:100FD00002220021084602F055FC022201210020D5
:100FE00002F050FC02220F21104602F04BFC0022BE
:100FF0000D21022002F046FC00220E21022002F008
:1010000041FC10BD0002300030B500228B071C0FE0
:101010000F2303FA04F20B4B8C1053F82430934344
:10102000084C8D1044F8253023468C1053F824309A
:101030008C07240F00FA04F42343024C8D1044F86B
:10104000253030BD080001402DE9F0410246002561
:101050000026002000230024002791F803C00CF094
:101060000F0591F803C00CF0100CBCF1000F03D079
:1010700091F802C04CEA050591F800C0BCF1000FE0
:1010800030D0146800202AE04FF0010C0CFA00F375
:10109000B1F800C00CEA03069E421FD183004FF056
:1010A0000F0C0CFA03F7BC4305FA03FC4CEA0404EA
:1010B00091F803C0BCF1280F05D14FF0010C0CFAD8
:1010C00000FCC2F814C091F803C0BCF1480F05D170
:1010D0004FF0010C0CFA00FCC2F810C0401C0828AC
:1010E000D2D31460B1F800C0BCF1FF0F34DD5468F6
:1010F00000202EE000F1080C4FF0010808FA0CF374
:10110000B1F800C00CEA03069E4221D183004FF0E3
:101110000F0C0CFA03F7BC4305FA03FC4CEA040479
:1011200091F803C0BCF1280F05D100F1080C08FAB2
:101130000CF8C2F8148091F803C0BCF1480F07D135
:1011400000F1080C4FF0010808FA0CF8C2F8108002
:10115000401C0828CED35460BDE8F081F0B50A46A3
:101160000023002400210025174E7168C0F30345B9
:1011700083B200F44016B6F5401F08D121F070612B
:10118000114E766826F070660F4F7E6012E000F414
:101190008016B6F5801F06D1032606FA05F4A14392
:1011A00041F0706106E0460D360103FA06F6B143E0
:1011B00041F0706122B1460D360103FA06F6314363
:1011C000014E7160F0BD00000000014041617047B8
:1011D00001617047C16070472DE9F34381B0044657
:1011E0002F48007820B901202D49087000F0B8F888
:1011F00014B90120ADF80000012C02D10220ADF895
:101200000000022C02D10420ADF80000032C02D112
:101210000820ADF80000042C02D11020ADF8000029
:10122000052C02D12020ADF80000062C02D1402070
:10123000ADF80000072C02D18020ADF8000000209E
:101240008DF8030069461748FFF7FEFE07230122C9
:1012500021461548FFF74EFA01211348FFF7ABFA74
:1012600000BF02211048FFF709FA0028F9D00A2030
:1012700001F080FC0C48FFF7FDF981469DF808005D
:1012800058B14846FFF765F80746084A084BFEF78D
:10129000E8FF0546FFF789F881464846BDE8FE832A
:1012A0007C01002000080140002401405BBF52A0E7
:1012B000D6AF44400246002100BF08E0064850F87F
:1012C0002100904201D108467047481CC1B2102944
:1012D000F4DB0020F8E70000903E00080246002101
:1012E00000BF08E0064850F82100904201D10846AE
:1012F0007047481CC1B20629F4DB0020F8E7000063
:10130000540100202DE9F84307460D4616461C46B9
:101310004FF000083846FFF7E1FF8046094951F8D1
:101320002800012100F02EFD8DF80360A8B2ADF871
:1013300000000CB18DF8024069463846FFF784FE84
:10134000BDE8F883D03E000800BFFEE77047704755
:101350007047704700B5022001F0EEFB00BD0000B1
:1013600000B585B001214FF4057000F00BFD4FF47E
:10137000004000F0EBFC1648FFF742F90020009017
:101380008DF804008DF805004FF4602002900020D5
:10139000039001208DF8100069460D48FFF782F98F
:1013A00001210B48FFF720F90948FFF7FFF900BFBB
:1013B0000748FFF76CF90028FAD10548FFF706FA4D
:1013C00000BF0348FFF74CF90028FAD105B000BD73
:1013D000002401401EB504460020029001900090B8
:1013E0003D490860012001F089FB04F0010018B1BB
:1013F00001203A49086002E000203849086004F002
:101400000200022804D101203449091D086003E0CC
:1014100000203249091D086004F00400042804D1AA
:1014200001202E490831086003E000202B490831D3
:10143000086004F00800082804D101202749283159
:10144000086003E0002025492831086004F01000FE
:10145000102804D1012021492C31086003E000202C
:101460001E492C31086004F02000202804D10120FE
:101470001A491431086003E000201849143108604B
:1014800004F04000402804D10120144918310860BC
:1014900003E0002011491831086004F08000802822
:1014A00004D101200D491C31086003E000200B49E4
:1014B0001C310860012001F021FB01200649091DB3
:1014C000086001F01BFB00200549C1F89C010120C8
:1014D00001F014FB1EBD00009801214280812142D1
:1014E0000000214200B501200B4908600B49C1F8FA
:1014F000A0013820FFF76EFF0C20FFF76BFF0620DE
:10150000FFF768FF0120FFF765FF8020FFF762FF0C
:101510000120FFF75FFF00BDA4812142008021422E
:1015200000BFFEE7704710B500214FF0006000F0EB
:1015300053F810BDF0B500210022002300250F2430
:10154000C678002E34D0214E366806F4E066C6F523
:10155000E066310AC1F10405CC40467806FA05F18F
:1015600086782640314309010678B607F60EB14069
:10157000174E0778BF1056F827200678B607F70EE3
:10158000FF2606FA07F39A4319400A43104E0778DC
:10159000BF1046F82720067806F01F070126BE4038
:1015A00007787F11BF0007F1E027C7F800610BE063
:1015B000067806F01F070126BE40064F90F800C0CF
:1015C0004FEA6C1C47F82C60F0BD00000CED00E009
:1015D00000E400E080E100E0024A0A400243024BDE
:1015E0001A60704780FFFF1F08ED00E001B59DF80D
:1015F00000000A2190FBF1F030300B4908709DF893
:1016000000000A2190FBF1F201FB12003030064984
:101610004870002088700A46044801780448007821
:1016200000F006F908BD0000DC0B0020DA01002004
:10163000DB01002001B5BDF80000642190FBF1F052
:10164000303011490870BDF800000A2190FBF1F01C
:1016500090FBF1F201FB120030300B494870BDF8ED
:1016600000000A2190FBF1F201FB12003030064924
:1016700088700020C8700A46044801780448007841
:1016800000F0D6F808BD0000DC0B0020DA010020D5
:10169000DB01002001B5BDF80000642190FBF1F0F2
:1016A000303012490870BDF800000A2190FBF1F0BB
:1016B00090FBF1F201FB120030300C4948702E20F3
:1016C0008870BDF800000A2190FBF1F201FB1200C6
:1016D00030300649C870002008710A460448017875
:1016E0000448007800F0A4F808BD0000DC0B0020DE
:1016F000DA010020DB01002001B5BDF800004FF445
:101700007A7190FBF1F0303017490870BDF8000095
:10171000642190FBF1F00A2190FBF1F201FB120031
:10172000303011494870BDF800000A2190FBF1F0FB
:1017300090FBF1F201FB120030300B498870BDF8CC
:1017400000000A2190FBF1F201FB12003030064943
:10175000C870002008710A460448017804480078DF
:1017600000F066F808BD0000DC0B0020DA01002064
:10177000DB01002001B542F210710098B0FBF1F0DE
:1017800030301C4908704FF47A710098B0FBF1F0CA
:101790000A21B0FBF1F201FB12003030154948700C
:1017A00064210098B0FBF1F00A21B0FBF1F201FBDB
:1017B000120030300F4988700A210098B0FBF1F018
:1017C000B0FBF1F201FB120030300A49C8700A2167
:1017D0000098B0FBF1F201FB1200303005490871AE
:1017E000002048710A46044801780448007800F057
:1017F0001FF808BDDC0B0020DA010020DB0100200F
:1018000070B500240CE0002506E00020074901EB3C
:10181000C5010855681CC5B2802DF6DB601CC4B23A
:10182000082CF0DB00F048F970BD00005C070020D8
:10183000F8B504460D4616460D48007820B901203B
:101840000B49087000F098F801202207110EEA06F3
:101850000090100E1023324600F026FA054804705E
:101860003046FEF785FC284403490870F8BD0000A7
:10187000D9010020DB010020DA010020F0B5144678
:101880000B46CF1701EB5777C7F3C702CF1701EB12
:101890005777FF10A1EBC707FEB20123B340DDB2BB
:1018A0004CB1134B03EBC0039B5C2B43104F07EB76
:1018B000C007BB541AE00E4B03EBC0039B5CDB4339
:1018C0000B4F07EBC007BB54094B03EBC0039B5CFA
:1018D0002B43074F07EBC007BB54054B03EBC0037B
:1018E0009B5CDB43024F07EBC007BB54F0BD00001D
:1018F0005C07002010B502210A48FFF769FC0121AE
:101900000848FFF765FCFFF725FD02210548FFF7B2
:101910005DFCFFF71FFD01210248FFF757FCFFF7B1
:1019200019FD10BD000C014010B502210648FFF75B
:101930004DFC01210448FFF74BFCFFF70BFD022192
:101940000148FFF745FC10BD000C014010B5022115
:101950000848FFF73DFCFFF7FDFC01210548FFF7B4
:1019600037FCFFF7F7FC01210248FFF72FFCFFF7D8
:10197000F1FC10BD000C014008B50121082000F069
:1019800001FA0120ADF8000010208DF803000320BB
:101990008DF8020069464748FFF756FB012145488C
:1019A000FFF716FC10208DF803000220ADF80000B0
:1019B00069464048FFF748FB02213E48FFF708FC14
:1019C000C82001F09BF80021AE2000F092F9002120
:1019D000084600F08EF90021102000F08AF900215D
:1019E000402000F086F90021812000F082F90021DA
:1019F000CF2000F07EF90021A12000F07AF900212B
:101A0000C82000F076F90021A62000F072F900212C
:101A1000A82000F06EF900213F2000F06AF90021B3
:101A2000D32000F066F90021084600F062F9002199
:101A3000D52000F05EF90021802000F05AF9002145
:101A4000D92000F056F90021F12000F052F90021D0
:101A5000DA2000F04EF90021122000F04AF90021AE
:101A6000DB2000F046F90021302000F042F900218F
:101A7000202000F03EF90021022000F03AF9002178
:101A80008D2000F036F90021142000F032F90021F9
:101A9000A42000F02EF90021A62000F02AF9002150
:101AA000AF2000F026F9FFF7ABFE0021AF2000F0D9
:101AB00020F908BD000C014070B500242BE004F1B2
:101AC000B001C8B2002100F014F90021084600F06E
:101AD00010F90021102000F00CF9FFF70BFF78201F
:101AE00000F01EF8FFF732FF402000F019F8FFF772
:101AF0002DFF002509E0094901EBC501085D00F053
:101B00000FF8FFF723FF681CC5B2802DF3DBFFF74A
:101B10000BFF601CC4B2082CD1DB70BD5C07002039
:101B200070B5044600251BE004F0800020B10221BE
:101B30000D48FFF74DFB03E002210B48FFF746FB82
:101B4000FFF708FC01210848FFF742FBFFF702FC02
:101B500001210548FFF73AFB6006040E681CC5B278
:101B6000082DE1DB70BD0000000C01402DE9FE4FA7
:101B70000746884692461C460197CDF80080082CFF
:101B800002D14FF006091FE02046E31704EB537320
:101B9000DB1021464FEAE47C04EB5C7C4FEAEC0C62
:101BA000A4EBCC0CBCF1000F02D04FF0010C01E013
:101BB0004FF0000C6344224604EBD27C4FEA6C0CDD
:101BC00003FB0CF303F0FF09AAF12000C6B20025C5
:101BD0005EE0082C07D106EB46002F4901EB4000E0
:101BE00010F805B01DE00C2C07D106EB46002B4980
:101BF00001EB800010F805B013E0102C05D1284847
:101C000000EB061010F805B00BE0182C07D106EB1E
:101C1000C600244901EB800010F805B001E0BDE8E2
:101C2000FE8F002002901CE00BF0010028B141461D
:101C300038460C9AFFF722FE09E00C9808B90120FB
:101C400000E00020024641463846FFF717FE4FEA03
:101C50006B0B08F1010000F0FF080298401CC0B2B5
:101C6000029002980828DFDB781CC7B2082C0BD042
:101C700004EBD4714A100199791A8A4204D1019F68
:101C800000980830C0B20090DDF80080681CC5B232
:101C90004D459EDB00BFC2E7543F00087C41000871
:101CA000F0450008E04B00082DE9F84106460F46D4
:101CB00014461D46DDF81C8013E0CDF80080227824
:101CC0002B4639463046FFF751FF082D02D1B01D93
:101CD000C6B205E0284605EBD07106EB6101CEB235
:101CE000641C2078202802DB20787E28E5DDBDE812
:101CF000F88170B505460C46FFF7FCFD7820FFF72C
:101D00000FFFFFF723FE1CB14020FFF709FF02E0A1
:101D10000020FFF705FFFFF719FE2846FFF700FF39
:101D2000FFF714FEFFF700FE70BD000010B504467B
:101D300022460348017803480078FFF779FD10BD7B
:101D4000DA010020DB0100207047704701460020C7
:101D5000034A506820F44040084350607047000038
:101D60000010024029B1064AD2690243044BDA61ED
:101D700004E0034AD2698243014BDA6170470000F4
:101D80000010024029B1064A92690243044B9A614D
:101D900004E0034A92698243014B9A617047000054
:101DA0000010024029B1064AD2680243044BDA60AF
:101DB00004E0034AD2688243014BDA6070470000B6
:101DC0000010024010B500F037F84FF4803000F0FA
:101DD000F5F800F053F91749087008460078012813
:101DE00026D11020FFF764F80220FFF76FF80020DB
:101DF00000F0D8F8002000F015F94FF4806000F0F2
:101E000005F94FF4E0114FF4803000F01DF9012086
:101E100000F014F900BF392000F09EF80028FAD035
:101E2000022000F01FF900BF00F0B4F80828FBD131
:101E300010BD0000450100200F48006840F001007F
:101E40000D490860084640680C4908400A49486046
:101E5000084600680A4908400749086008460068C3
:101E600020F4802008600846406820F4FE004860A6
:101E70000020886070470000001002400000FFF85A
:101E8000FFFFF6FE30B500210022002400232D4D77
:101E90006D6805F00C0121B1042905D0082923D172
:101EA00005E0294D056022E0274D05601FE0254D26
:101EB0006D6805F47012022505EB9242214D6D68A4
:101EC00005F480341CB9214D554305600BE01D4DD0
:101ED0006D6805F400351DB11C4D5543056002E0E9
:101EE000194D5543056002E0174D056000BF00BF66
:101EF000144D6D6805F0F0010909154D6B5C05681E
:101F0000DD4045600F4D6D6805F4E061090A104D34
:101F10006B5C4568DD4085600A4D6D6805F4605175
:101F2000C90A0B4D6B5C4568DD40C560054D6D68A9
:101F300005F44041890B074D6B5CC568B5FBF3F5B3
:101F4000056130BD0010024000127A0000093D001A
:101F5000845C0008945C000810B501460022002350
:101F600000204A11012A02D1094C236806E0022A06
:101F700002D1074C236A01E0054C636A01F01F029D
:101F8000012494401C400CB1012000E0002010BD51
:101F9000001002400248406800F00C00704700004A
:101FA0000010024001460020034A506820F0F00073
:101FB0000843506070470000001002401149096852
:101FC00021F480310F4A11601146096821F4802103
:101FD0001160B0F5803F03D0B0F5802F0ED106E040
:101FE0000849096841F48031064A116007E0054953
:101FF000096841F4A021034A116000E000BF00BF5E
:1020000070470000001002407047000001460020A9
:10201000034A506820F4E0600843506070470000B5
:102020000010024001460020034A506820F460502E
:1020300040EAC10050607047001002400149086644
:10204000704700000000424202460020044B5868DE
:1020500020F47C1042EA01031843014B586070479A
:102060000010024001460020034A506820F003009F
:1020700008435060704700000010024010B5002473
:1020800000BF3120FFF768FF0C4908700C4800685A
:10209000401C0B4908600948007828B908460068C8
:1020A00040F2FF118842ECD13120FFF755FF08B113
:1020B000012400E00024204610BD0000A4020020FE
:1020C000A8020020704770477047704770477047FC
:1020D00030B50546002445F6FF7000F05FF8044671
:1020E000C4B90D48006940F002000B490861084678
:1020F0004561006940F04000086145F6FF7000F05E
:102100004DF80446012C05D00348006920F0020078
:1021100001490861204630BD002002400948C168DD
:1021200001F0010008B10120704701F0040008B17E
:102130000220F9E701F0100008B10320F4E70020C5
:10214000F2E70000002002400348006940F08000F0
:1021500001490861704700000020024030B5034685
:102160000C461546002207E0184600F008F824F84F
:1021700012009B1C501C82B2AA42F5DB30BD014606
:102180000888704702480349486003484860704720
:102190002301674500200240AB89EFCD08B5024618
:1021A00000BFFFF7BBFF012800D00FE0082100911E
:1021B00004E09DF80010491EC9B200919DF800107E
:1021C0000029F6D1511E8AB2002AEAD100BF02B915
:1021D000FF2008BD2DE9F04F80468A461746B8F12A
:1021E000006F02D33348804501D3BDE8F08FFFF77D
:1021F000C9FFA8F1006B4FEA9B25CBF34809C9F54D
:102200000074A74200DC3C464DE04FF0006101EB5A
:1022100085208A142849FFF7A1FF00260BE009EB6F
:102220000600254931F810004FF6FF71884200D0B2
:1022300003E0701C86B2A642F1DB00BFA6421BDAA7
:102240004FF0006101EB8520FFF742FF002608E018
:102250003AF8160006EB0901174A22F81100701C23
:1022600086B2A642F4DB4FF0006101EB85208A14B0
:10227000114900F043F804E022465146404600F080
:102280003DF8A74200D10FE06D1C4FF000090AEBAA
:10229000440AA044381B87B2B7F5007F02DD4FF433
:1022A000007400E03C46B0E700BFFFF74DFF00BF01
:1022B0009BE7000000800008AE0C002070B50546CA
:1022C0000E46FF20FFF76AFF044694B90A480069EA
:1022D00040F00100084908612E80FF20FFF75EFFF3
:1022E0000446012C05D00448006920F00100024991
:1022F0000861204670BD000000200240F0B5054690
:102300000E461746002407E036F814102846FFF75B
:10231000D5FFAD1C601C84B2BC42F5DBF0BD70473C
:1023200000B5142202490348FFF718FF00BD000062
:102330006C0600200078000800B51422024903480A
:10234000FFF748FF00BD00006C0600200078000881
:1023500070477047704770477047000010B5012103
:102360000B4800F054F890B10121094800F040F802
:1023700001F0CEFB07480078401C0649087008466B
:102380000078092803DD0020087001F053FC10BD1F
:10239000002C0140A202002000B585B00120019070
:1023A00040F6047000900121C802FFF7EBFCBDF875
:1023B0000400ADF80C00BDF80000ADF808000020E6
:1023C000ADF80E00ADF80A008DF8100002A9024821
:1023D00000F038F805B000BD002C01407047704790
:1023E0007047704770477047704770477047704735
:1023F000CA430282704721B1028842F00102028082
:1024000004E0028840F2FE331A400280704730B583
:102410000246002000230024158A05EA010395895D
:1024200005EA010413B10CB1012000E0002030BD29
:102430001AB183890B43838102E083898B438381B3
:1024400070470000028802F08F020280CA884B8821
:102450001A4303881A4302808A8882850A88028583
:1024600001228282044A904202D0044A904201D161
:102470000A7A028670470000002C014000340140B7
:1024800001B586B0BDF8180001904FF4616000906E
:102490000121C802FFF776FCBDF80400ADF810007A
:1024A000BDF80000ADF80C000020ADF81200ADF84A
:1024B0000E008DF8140003A90E48FFF7C3FF012298
:1024C00011460C48FFF7B4FF01210A48FFF793FFBC
:1024D00019208DF8080000208DF8090001208DF8E2
:1024E0000A008DF80B0002A8FFF724F8FEF7FAFFA8
:1024F00007B000BD002C01401CB50022114610465B
:1025000001F0C0F902220121002001F0BBF90020F6
:10251000009010234822022101900248FEF77AFC25
:102520001CBD0000000801407047704773B58AB0B9
:102530000446734884420DD1012144F20400FFF7A0
:1025400021FC6015ADF824004000ADF820006D4D71
:102550002E464EE06C48844210D101214804FFF71A
:1025600001FC01210420FFF70DFC0420ADF824003C
:102570000820ADF82000634D2E463AE063488442BF
:1025800010D101218804FFF7EDFB01210820FFF79E
:10259000F9FB2015ADF824004000ADF820005C4D9B
:1025A0002E4626E05B48844210D10121C804FFF783
:1025B000D9FB01211020FFF7E5FB2015ADF8240021
:1025C0004000ADF82000544D2E4612E0534884429E
:1025D0000FD101210805FFF7C5FB01213020FFF7CE
:1025E000D1FBA014ADF824000420ADF820004A4D22
:1025F0004B4E18208DF8270003208DF8260009A9DE
:102600002846FEF721FD04208DF8230008A9304656
:10261000FEF71AFD0020ADF80800ADF80A004FF4EF
:102620000070ADF80C000020ADF80E0002A92046A5
:1026300000F074F90B9804900020ADF81400ADF888
:102640001600ADF81800ADF81C000C20ADF81A000B
:1026500004A9204600F0CEF90121204600F06FF9D0
:102660002748844216D1012240F2255100F0A2F9F8
:102670002C48046025208DF8040001208DF8050009
:1026800000208DF8060001208DF8070001A8FEF754
:1026900051FF32E01C48844216D1012240F22551FC
:1026A00000F088F91F48046026208DF804000120FE
:1026B0008DF8050000208DF8060001208DF8070038
:1026C00001A8FEF737FF18E01048844215D1012217
:1026D00040F2255100F06EF91248046027208DF871
:1026E000040001208DF8050000208DF8060001206F
:1026F0008DF8070001A8FEF71DFF0CB070BD0000AB
:1027000000380140000801400044004000480040FB
:10271000000C0140004C00400010014000500040FF
:10272000001401405001002008B540F225511F4817
:1027300000F01AF9002837D040F225511B4800F06C
:10274000E3F81A48001D0088C0B2009018480078CD
:1027500040B9012016490870002016490880012060
:10276000154908701E201549088012480088B0F5E8
:102770008C7F08DA9DF800200E490888411C0D4B1B
:1027800019800F490A540B480088B0F58C7F0BDB89
:102790000020074908706420084908800020064985
:1027A000087001200749087008BD0000003801408A
:1027B00068000020640000206A00002066000020FD
:1027C000AC0200206900002008B540F225511F48E6
:1027D00000F0CAF8002837D040F225511B4800F01D
:1027E00093F81A48001D0088C0B20090184800787D
:1027F00040B90120164908700020164908800120C0
:10280000154908701E201549088012480088B0F547
:102810008C7F08DA9DF800200E490888411C0D4B7A
:1028200019800F490A540B480088B0F58C7F0BDBE8
:1028300000200749087064200849088000200649E4
:10284000087001200749087008BD000000440040DE
:10285000D4000020D0000020D6000020D2000020AC
:10286000C4030020D500002008B540F225511F48C0
:1028700000F07AF8002837D040F225511B4800F0CC
:1028800043F81A48001D0088C0B20090184800782C
:1028900040B901201649087000201649088001201F
:1028A000154908701E201549088012480088B0F5A7
:1028B0008C7F08DA9DF800200E490888411C0D4BDA
:1028C00019800F490A540B480088B0F58C7F0BDB48
:1028D0000020074908706420084908800020064944
:1028E000087001200749087008BD0000004800403A
:1028F000400100203C010020420100203E01002058
:10290000DC0400204101002010B5002200230A123F
:1029100001249440A3B2DC43048010BD10B50246EC
:102920000020108A4FF2FF0318400B884C88234385
:102930008C882343CC8823431843108210BD21B1D7
:10294000828942F40052828104E082894DF6FF734D
:102950001A40828170470246002013880B400BB159
:10296000012000E00020704770B502460B460024AD
:10297000002100250020C3F3421503F01F010126AA
:1029800006FA01F1012D02D19689314006E0022DAF
:1029900002D1168A314001E0968A31401C1201268C
:1029A00006FA04F41688344011B10CB1012000E09D
:1029B000002070BDF0B5034600240026002500204D
:1029C0001846C1F3421401F01F06012707FA06F565
:1029D000012C01D10C3004E0022C01D1103000E0B8
:1029E00014301AB107682F43076002E00768AF434D
:1029F0000760F0BD2DE9F04786B005460E4600247D
:102A0000A24600BF00BF00272F462C8A4CF6FF705D
:102A10000440F08804432C82AC894EF6F310044045
:102A2000B08831890843718908430443AC81AC8A7A
:102A30004FF6FF400440B0890443AC8201A8FFF781
:102A400021FA1248874202D1DDF810A001E0DDF83A
:102A50000CA00AEBCA0000EB0A1031688900B0FB39
:102A6000F1F86420B8FBF0F004012009642101FBB7
:102A70001089322000EB0910B0FBF1F000F00F00DC
:102A800004432C8106B0BDE8F08700000038014007
:102A9000C1F308028280704770477047704700BFDB
:102AA000FEE7704702E008C8121F08C1002AFAD1E9
:102AB00070477047002001E001C1121F002AFBD1BE
:102AC000704700004FF0E021096921F004014FF048
:102AD000E0221161C21700EB5272C2F3C702054B2C
:102AE0001A70194609784FF47A725143024A1160FC
:102AF00070470000460100204801002001460D4AB1
:102B000012684A434FF0E0235A6100229A61012281
:102B10001A6100BF4FF0E022106900F001021AB103
:102B200000F48032002AF5D000224FF0E0231A6131
:102B30009A6170474801002001460D4A12784A43C5
:102B40004FF0E0235A6100229A6101221A6100BF0E
:102B50004FF0E022106900F001021AB100F4803257
:102B6000002AF5D000224FF0E0231A619A617047E5
:102B70004601002010B504462046FFF7BFFF10BDF8
:102B800003B581B09DF8040050B9674800789DF8FE
:102B90000810884200D10EBD9DF8080062490870F7
:102BA0009DF8040001280AD15F4840789DF808107C
:102BB000884200D1EFE79DF808005B4948709DF816
:102BC000040002280AD1584880789DF808108842ED
:102BD00000D1E0E79DF80800534988709DF8040093
:102BE00003280AD15048C0789DF80810884200D1C7
:102BF000D1E79DF808004C49C870002000908BE098
:102C00009DF80400E8B9012300220E21184600F0C7
:102C1000B9F89DF808104FF4FA7201FB02F0FFF7C3
:102C20008BFF00231A460E21012000F0ABF89DF81F
:102C3000081044F620624FF4FA7303FB1120FFF7EB
:102C40007BFF9DF8040001281DD1012300220F21E4
:102C5000104600F097F89DF808104FF4FA7201FB47
:102C600002F0FFF769FF00231A460F21184600F013
:102C700089F89DF8081044F620624FF4FA7303FBBC
:102C80001120FFF759FF9DF8040002281DD10123F0
:102C900000220B21104600F075F89DF808104FF443
:102CA000FA7201FB02F0FFF747FF00231A460B21DF
:102CB000184600F067F89DF8081044F620624FF4BB
:102CC000FA7303FB1120FFF737FF9DF80400032878
:102CD0001DD1012300220B21104600F053F89DF86E
:102CE00008104FF4FA7201FB02F0FFF725FF0023F2
:102CF0001A460B21184600F045F89DF8081044F6D6
:102D000020624FF4FA7303FB1120FFF715FF9DF8C3
:102D10000000401CC0B200909DF800001428FFF68F
:102D20006FAF00BF37E700008902002013B5022211
:102D30009DF804109DF8000000F0A4FD9DF800002F
:102D400008B90D4C0AE09DF80000012801D10B4C98
:102D500004E09DF80000022800D1094C04F0704006
:102D600000F10070C4F3130100EB41109DF8041052
:102D700050F82100C0B21CBD08080140080C0140F9
:102D8000081001401FB59DF808209DF804109DF81B
:102D9000000000F077FD9DF8000008B90D4C0AE036
:102DA0009DF80000012801D10B4C04E09DF80000C3
:102DB000022800D1094C9DF80C1004F0704000F17D
:102DC0000070C4F3130200EB42109DF8042040F899
:102DD00022101FBD0C0801400C0C01400C100140DA
:102DE00007B582B0002001909DF80C109DF80800F6
:102DF00000F010F801909DF80400C0F10100C3B28A
:102E00009DF810209DF80C109DF80800FFF7BAFF00
:102E100005B000BD03B59DF8000008B90D490AE0F2
:102E20009DF80000012801D10B4904E09DF8000045
:102E3000022800D1094901F0704000F10070C1F38F
:102E4000130200EB42109DF8042050F82200C0B29B
:102E50000CBD00000C0801400C0C01400C1001409E
:102E60008CB000200A900990089007900690059079
:102E7000049003900290FEF7A5FFFEF754FB482054
:102E8000FFF720FE4FF49670FFF738FE01211D205A
:102E9000FEF778FF0121FE48FEF760F9FEF726F8FD
:102EA000FFF73EFA4FF41651FA48FFF73FFB0120B7
:102EB000FFF7E6FAFEF75CF84FF41651F648FFF715
:102EC00035FBFFF719FB00220721104600F0DAFC62
:102ED00028E201210846FEF77FF9F049087000F06A
:102EE00099FB01210520FEF777F9C0F16200EC495A
:102EF000087001210020FEF76FF9EA4908700B21E4
:102F00000020FDF7CBFCBDF82000E7490978CDE9AA
:102F10000010E4480378E2480278E0480178E3488A
:102F2000007800F009FABDF82000002864D0BDF850
:102F30001C0020B101210020FFF722FE03E0032145
:102F40000020FFF71DFEBDF8180020B10121084642
:102F5000FFF716FE03E003210120FFF711FEBDF885
:102F6000140060B100231A460F210220FFF70AFF68
:102F70000123002203211046FFF704FF1BE0BDF8E8
:102F8000100060B100231A4603211846FFF7FAFE2D
:102F9000012300220F210220FFF7F4FE0BE00123A2
:102FA00000220F210220FFF7EDFE01230022032162
:102FB0001046FFF7E7FEBDF80C0030B101230022F8
:102FC0000F211846FFF7DEFE05E000231A460F2109
:102FD0000120FFF7D7FEBDF8080030B10123002221
:102FE00004211046FFF7CEFE91E000231A4604218B
:102FF0001846FFF7C7FE8AE0AD480088AA4909785D
:10300000884212DD00231A4603211846FFF7BAFE54
:10301000012300220F210220FFF7B4FE00231A46ED
:103020000F210120FFF7AEFE2AE0A14840889E490B
:103030000978884212DA00231A460F210220FFF78E
:10304000A1FE0123002203211046FFF79BFE01236E
:1030500000220F211846FFF795FE11E00123002200
:103060000F210220FFF78EFE0123002203211046CC
:10307000FFF788FE00231A460F210120FFF782FE8A
:103080008A48007800280CDD8948808884490978BE
:10309000884206DD0123002204211046FFF772FE5C
:1030A00005E000231A4604211846FFF76BFE80480E
:1030B000C0887B490978884204DA01210846FFF775
:1030C0005FFD03E003210120FFF75AFD78484089A6
:1030D00072490978884204DA01210020FFF750FD87
:1030E00003E003210020FFF74BFD714800896D4983
:1030F0000978884205DA00220C211046FFF770FE9D
:1031000005E0012300220C211046FFF73BFE694831
:10311000007800287DD0002066490870644A66A1C6
:10312000664800F023FC624908808A1C64A1634859
:1031300000F01CFC5E4948800A1D62A15F4800F057
:1031400015FC5B4988808A1D5FA15C4800F00EFC7D
:103150005749C88001F108025CA1584800F006FCFC
:103160005349088101F10A0259A1544800F0FEFBBD
:103170004F494881FFF7E0F856A15048FCF7E6FFB9
:1031800008B10020089054A14C48FCF7DFFF38B18B
:1031900001200890BDF81C00C0F1010080B207902A
:1031A0004EA14648FCF7D2FF38B101200890BDF887
:1031B0001800C0F1010080B2069049A13F48FCF719
:1031C000C5FF60B101200890BDF81400C0F10100F6
:1031D00080B20590BDF8140008B10020049041A110
:1031E0003648FCF7B3FF60B101200890BDF810002D
:1031F000C0F1010080B20490BDF8100008B10020B9
:10320000059039A12D48FCF7A1FF48B10120089095
:1032100000E023E0BDF80C00C0F1010080B2039093
:1032200032A12648FCF792FF38B101200890BDF882
:103230000800C0F1010080B2029000200B9009E06C
:1032400000201E49BDF82C208854BDF82C00401CDD
:1032500080B20B90BDF82C001E28F1DBBDF82400D5
:10326000401C80B20990BDF824000C2857DD0020D6
:103270000990012000F006FE0C480178012000F0C2
:103280008BFD06480178012000F086FD04482FE000
:10329000000230000038014000440040920200204B
:1032A0008D020020930200209D0200208E0200204B
:1032B0006C060020690000206B310000AC02002089
:1032C0006B3200006B3300006B3400006B35000084
:1032D0006B3600006B6100006B6200006B630000E6
:1032E0006B6400006B6500006B6600006B6700009C
:1032F0000178012000F050FD0B480178012000F01A
:103300004BFDBDF82010012000F046FD0748017874
:10331000012000F041FD06A1012000F0E3FC642043
:10332000FFF728FCD5E50000930200209D02002055
:1033300031323138303100000FB583B03220FFF721
:1033400019FC9B480068002830D10A20FFF712FCC6
:103350009748006850B997480078401C9549087014
:1033600008460078062801D90020087000BF904860
:1033700000680028FBD08F48007828B98EA2002171
:103380000846FEF755FA11E08A48007801280DD169
:1033900089A20021FEF74CFA87A200210220FEF745
:1033A00047FA85A200210320FEF742FA81480078FF
:1033B000002840D185A200210846FEF739FABDF861
:1033C0000C10C8B2FEF712F982A200210120FEF70C
:1033D0002FFABDF81010C8B2FEF708F97FA20B2132
:1033E0000120FEF725FABDF81410C8B2FEF7FEF86A
:1033F0007BA200210220FEF71BFABDF81810C8B20C
:10340000FEF7F4F878A200210320FEF711FABDF8C8
:103410002010C8B2FEF7EAF8BDF8240028B973A25C
:103420000C210320FEF704FABEE072A20C21032057
:10343000FEF7FEF9B8E05F480078401E00EB800020
:103440006E4901EB800200210846FEF7F1F9594967
:103450000978491E01EB8101684A02EB8100FCF703
:1034600087FE80B2019066A0FEF760FCBDF8040004
:10347000401C80B201904F480078401E614931F8ED
:10348000100002904B480078632803D04948007828
:10349000622808D147490978491E5B4A32F8110071
:1034A000FEF7F8F832E0BDF80800642809DA41496F
:1034B0000978491E544A32F81110C8B2FEF796F83E
:1034C00024E0BDF80800B0F57A7F08DA39490978B8
:1034D000491E4D4A32F81100FEF7ACF816E0BDF86F
:1034E000080042F21071884208DA32490978491E10
:1034F000454A32F81100FEF7FFF807E02D49097838
:10350000491E414A32F81100FEF734F9BDF80400B3
:10351000009007E03DA0FEF709FCBDF80000401C4C
:1035200080B20090BDF800001028F3DB3848006836
:10353000D0B920490978491E334A02EB410001887D
:10354000491C01801B480078401E114631F81000CC
:10355000BDF80810884205DD002116480078401E9D
:1035600022F81010FEF7E8FE1148001F0068D8B9D5
:1035700010490978491E244A02EB41000188491E7E
:1035800001800C480078401E114631F81000BDF84B
:103590000810884206DDBDF8081006480078401E75
:1035A00022F81010FEF7C8FEFEF786FA07B000BD3D
:1035B000248121427E010020202020202020202064
:1035C00020202020202020200D0A000052656E536C
:1035D00068753A004D713133353A0000476D3A0055
:1035E0004D71323A00000000543A00004175746F8A
:1035F0000000000048616E6400000000DC01002053
:103600003A000000540200206C0600202000000058
:103610002001214210B52F48007818B100202E4912
:10362000086002E001202C4908602C48007820B195
:1036300000202949091F086003E001202649091FCD
:1036400008602748007800283ED10D210220FFF7AE
:103650006DFBC0B90E210220FFF768FB012812D1D3
:1036600005201F4908701D48007818B90120194924
:1036700008702EE00020194908701A480078401C94
:103680001849087025E00E210220FFF74FFB00BB10
:103690000D210220FFF74AFB01281AD1052010490D
:1036A00008700C48007818B901200C49087010E027
:1036B0000020084908700B48007850B1094800788C
:1036C000401E0849087004E005480078401E04497F
:1036D000087010BD8F020020B481214290020020AA
:1036E000910200208E02002013B59DF800000128F1
:1036F0000CD100BF40211F48FFF72DF90028F9D059
:103700009DF804101B48FFF7C3F932E09DF8000054
:1037100002280CD100BF40211748FFF71CF90028F0
:10372000F9D09DF804101448FFF7B2F921E09DF894
:10373000000003280CD100BF40211048FFF70BF90F
:103740000028F9D09DF804100C48FFF7A1F910E00B
:103750009DF80000042804D19DF8040000F010F842
:1037600007E09DF80000052803D19DF8040000F053
:1037700041F81CBD003801400044004000480040B2
:1037800001B581B000200090184908606820FFF75B
:10379000D3F90020009011E09DF8040000F0010032
:1037A000124908609DF80400401001906820FFF75E
:1037B000C3F99DF80000401CC0B200909DF80000C5
:1037C0000828E9DB0120094908606820FFF7B4F9FF
:1037D00001200749C1F880016820FFF7ADF90120F9
:1037E000024908606820FFF7A7F90CBD800121425B
:1037F0000000214201B581B0002000901849086006
:103800006820FFF799F90020009011E09DF804006E
:1038100000F00100124908609DF80400401001907A
:103820006820FFF789F99DF80000401CC0B20090A5
:103830009DF800000828E9DB01200949086068209C
:10384000FFF77AF901200749C1F890016820FFF7D6
:1038500073F90120024908606820FFF76DF90CBD7B
:10386000900121420000214213B50C4605E014F8F6
:10387000011B9DF80000FFF737FF20780028F6D1E4
:103880001CBD000007B582B09DF80C1001208840D7
:1038900080B2ADF804009DF8100018B910208DF822
:1038A00007000EE09DF81000012803D114208DF8C8
:1038B000070006E09DF81000022802D148208DF88C
:1038C000070003208DF806009DF8080058B901A9EB
:1038D0001E48FDF7B9FB01209DF80C101C4A02EBB5
:1038E0008101C1F880019DF8080001280BD101A9D0
:1038F0001848FDF7A9FB01219DF80C00164A02EBC0
:103900008000C0F880119DF8080002280BD101A9A1
:103910001248FDF799FB01219DF80C00104A02EBBB
:103920008000C0F880119DF8080003280BD101A980
:103930000C48FDF789FB01209DF80C100A4A02EBA8
:103940008101C1F8800105B000BD00000008014000
:1039500000002142000C0140008021420010014083
:103960000000224200140140008022423CB5034680
:103970001088009000200190C2E09DF80400185CBF
:103980000C78A04244D19DF80400401C185C4C788F
:10399000A042F7D19DF80400401DC0B201909DF8EF
:1039A0000400001D185C2F2833DD9DF80400001D65
:1039B000185C3A282DDA9DF80400185C303842F281
:1039C000107460439DF80440641C1C5D303C04EBA3
:1039D0004405C5EBC41400EBC4049DF80400801C2E
:1039E000185C303800EBC00505EB001004EB8004D8
:1039F0009DF80400C01C185C303800EB800004EB1C
:103A000040049DF80400001D185C303820440090EC
:103A100071E09DF80400C01C185C2F2828DD9DF87B
:103A20000400C01C185C3A2822DA9DF80400185CD7
:103A300030384FF47A7460439DF80440641C1C5D78
:103A4000303C04EBC40505EB041400EB84049DF842
:103A50000400801C185C303800EB800004EB40044C
:103A60009DF80400C01C185C30382044009042E0EF
:103A70009DF80400801C185C2F281CDD9DF80400B4
:103A8000801C185C3A2816DA9DF80400185C30385F
:103A9000642460439DF80440641C1C5D303C04EBCE
:103AA000840400EB44049DF80400801C185C30384A
:103AB000204400901FE09DF80400401C185C2F2853
:103AC00014DD9DF80400401C185C3A280EDA9DF8BD
:103AD0000400401C1C5C303C9DF80400185C30382D
:103AE00000EB800004EB4000009004E09DF804002F
:103AF000185C303800909DF80400401CC0B2019062
:103B00009DF804001E28FFF638AF00983CBD000069
:103B10003948007850B138480078401E364908705E
:103B20000846007810B901203449087034480078FC
:103B300038B3344800784010324908703248006881
:103B400020B10846007840F0800008702F480078C7
:103B5000401E2E4908700846007890B90020284978
:103B600008702B480078642808DA26490A78284922
:103B70000878411C264B197026490A5464201E49B6
:103B800008702548007850B123480078401E22492B
:103B900008700846007810B90120204908702048B4
:103BA000007840B31F48007840101E49087016483E
:103BB0001030006820B10846007840F0800008709E
:103BC00019480078401E184908700846007890B9D6
:103BD00000201349087015480078642808DA114954
:103BE0000A7812490878411C104B197010490A5480
:103BF0006420094908707047740100207501002095
:103C00007201002070010020040121427101002096
:103C100073010020940600207A0100207B0100201F
:103C20007801002076010020770100207901002032
:103C3000F80600201F48007888B11F480088002837
:103C400005DD1D480088401E1B49088007E0002054
:103C50001A49087017490870012019490870194855
:103C6000007888B118480088002805DD16480088CB
:103C7000401E1549088007E00020144908701149CA
:103C800008700120124908701248007888B1124863
:103C90000088002805DD10480088401E0E49088075
:103CA00007E000200D4908700A49087001200C49FE
:103CB000087070476A00002066000020680000203D
:103CC00069000020D6000020D2000020D40000208F
:103CD000D5000020420100203E01002040010020CC
:103CE0004101002033B581B00C4653219DF80400FA
:103CF000FFF7FAFC21469DF80400FFF7B5FD2448C4
:103D00000078642190FBF1F03030C5B229469DF86F
:103D10000400FFF7E9FC1E4800780A2190FBF1F04F
:103D200090FBF1F201FB12003030C5B229469DF83C
:103D30000400FFF7D9FC164800780A2190FBF1F245
:103D400001FB12003030C5B229469DF80400FFF790
:103D5000CBFC002000900EE00E489DF8002030F8CB
:103D60001200C1B29DF80400FFF7BEFC9DF80000F0
:103D7000401CC0B200909DF80000054909788842B7
:103D8000EADB45219DF80400FFF7AEFC3EBD0000D4
:103D900088020020E60B002003B53848007840B1C7
:103DA0002C2236490878411C344B1970344921F8CB
:103DB000102042F21071019888420ED342F2107224
:103DC0000199B1FBF2F130318AB22C490878411CDB
:103DD0002A4B19702A4921F810200198B0F57A7FF2
:103DE00012D34FF47A720199B1FBF2F10A22B1FBBE
:103DF000F2F302FB13113031204A1078421C1F4BA2
:103E00001A701F4A22F810100198642811D36422F6
:103E10000199B1FBF2F10A22B1FBF2F302FB13119B
:103E20003031164A1078421C144B1A70144A22F88A
:103E3000101001980A2810D30A220199B1FBF2F15F
:103E4000B1FBF2F302FB131130310C4A1078421C23
:103E50000A4B1A700A4A22F810100A220199B1FB83
:103E6000F2F302FB13113031044A1078421C034B69
:103E70001A70034A22F810100CBD000088020020BE
:103E8000E60B0020002001490870704788020020DE
:103E90000100000002000000040000000800000013
:103EA0001000000020000000400000008000000022
:103EB00000010000000200000004000000080000F3
:103EC0000010000000200000004000000080000002
:103ED00004000000080000001000000020000000A6
:103EE000400000008000000000010000000102030B
:103EF000040506000102030405060708090A0B0C65
:103F00000D0E0F0001000000020000000400000080
:103F10000800000010000000200000004000000029
:103F2000800000000001000000020000000400000A
:103F30000008000000100000002000000040000009
:103F400000800000060708090A1717171717282806
:103F5000282828280000000000000000002F000092
:103F600000000700070000147F147F1400242A7F3C
:103F70002A120062640813230036495522500000BB
:103F80000503000000001C224100000041221C002B
:103F90000014083E08140008083E0808000000A0AD
:103FA00060000008080808080000606000000020A9
:103FB00010080402003E5149453E0000427F400087
:103FC000004261514946002141454B31001814120D
:103FD0007F10002745454539003C4A4949300001DA
:103FE0007109050300364949493600064949291E29
:103FF000000036360000000056360000000814228B
:10400000410000141414141400004122140800028A
:104010000151090600324959513E007C1211127CAF
:10402000007F49494936003E41414122007F4141DC
:10403000221C007F49494941007F09090901003ECE
:104040004149497A007F0808087F0000417F41000C
:10405000002040413F01007F08142241007F404082
:104060004040007F020C027F007F0408107F003E6A
:104070004141413E007F09090906003E4151215E50
:10408000007F091929460046494949310001017F4D
:104090000101003F4040403F001F2040201F003FE3
:1040A0004038403F00631408146300070870080795
:1040B00000615149454300007F41410000552A55A8
:1040C0002A55000041417F00000402010204004023
:1040D0004040404000000102040000205454547845
:1040E000007F484444380038444444200038444465
:1040F000487F00385454541800087E090102001803
:10410000A4A4A47C007F080404780000447D40003F
:10411000004080847D00007F102844000000417F23
:104120004000007C04180478007C080404780038FF
:104130004444443800FC242424180018242418FC87
:10414000007C0804040800485454542000043F44F0
:104150004020003C4040207C001C2040201C003CB3
:104160004030403C004428102844001CA0A0A07C03
:10417000004464544C44141414141414000000003B
:1041800000000000000000000000FC000000000033
:1041900002000000000C020C020000000000000001
:1041A00090D0BCD0BC900003000300001824FE4453
:1041B0008C000302070201001824D8B04C800003D1
:1041C00000010201C038E438E000010202010202ED
:1041D000080600000000000000000000000000F8D9
:1041E0000402000000010204000204F800000004C0
:1041F000020100009060F8609000000001000000E3
:104200002020FC2020000000010000000000000031
:1042100000000806000000002020202020000000F0
:10422000000000000000000000000002000000008C
:104230000080601C0200040300000000F804040475
:10424000F8000102020201000008FC000000000268
:104250000302000018844424180003020202020032
:1042600008042424D80001020202010040B088FCA6
:1042700080000000000302003C242424C40001024A
:1042800002020100F824242CC000010202020100F5
:104290000C04E41C0400000003000000D8242424C3
:1042A000D80001020202010038444444F80000032F
:1042B00002020100000010000000000002000000E7
:1042C00000002000000000000600000000205088D0
:1042D0000402000000000102909090909000000005
:1042E00000000000000204885020000201000000CD
:1042F0001804C4241800000002000000F804E4942C
:10430000F80001020202020000E09CF080000203BB
:104310000000030204FC2424D8000203020201006E
:10432000F80404040C0001020202010004FC04046D
:10433000F80002030202010004FC24740C000203D2
:104340000202030004FC24740C00020302000000BB
:10435000F0080444CC4000010202010004FC2020CB
:10436000FC040203000003020404FC040400020233
:1043700003020200000404FC040406040403000019
:1043800004FC24D00C0402030200030204FC040019
:104390000000020302020203FC3CC03CFC000300DC
:1043A0000300030004FC30C4FC0402030200030009
:1043B000F8040404F80001020202010004FC2424B1
:1043C0001800020302000000F8848404F8000102CF
:1043D0000207050004FC24649800020302000302A3
:1043E000182424448C000302020201000C04FC0483
:1043F0000C0000020302000004FC0000FC040001A9
:1044000002020100047C80E01C04000003000000A4
:104410001CE03CE01C00000300030000049C609CC6
:104420000400020300030200041CE01C040000025C
:10443000030200000C84641C040002030202030057
:104440000000FE020200000007040400000E30C05D
:104450000000000000010200000202FE0000000453
:104460000407000000040204000000000000000037
:10447000000000000000080808080808000002000A
:1044800000000000000000000040A0A0C0000001EB
:104490000202030204FC2020C0000003020201000B
:1044A00000C02020600000010202020000C02024A1
:1044B000FC0000010202030200C0A0A0C000000135
:1044C000020202000020F824240400020302020079
:1044D0000040A0A0602000070A0A0A0404FC202073
:1044E000C0000203020003020020E40000000002FA
:1044F00003020000000020E4000008080807000094
:1045000004FC80E020200203020003020404FC00FB
:104510000000020203020200E020E020C0000300CD
:104520000300030020E02020C00002030200030279
:1045300000C02020C00000010202010020E0202075
:10454000C000080F0A02010000C02020E0000001A6
:10455000020A0F0820E040202000020302000000B1
:104560000060A0A020000002020203000020F8204A
:10457000000000000102020020E00020E000000135
:104580000202030220E020806020000003010000FE
:104590006080E08060000003000300002060806015
:1045A000200002030003020020E0208060200808B1
:1045B000070100000020A0602000000203020200AA
:1045C000000020DE0200000000070400000000FFE1
:1045D00000000000000F00000002DE2000000004C8
:1045E00007000000020102040402000000000000B5
:1045F00000000000000000000000000000000000BB
:10460000000000F80000000000000033300000004F
:1046100000100C06100C0600000000000000000056
:1046200040C07840C0784000043F04043F040400C8
:10463000007088FC08300000001820FF211E0000D8
:10464000F008F000E018000000211C031E211E00ED
:1046500000F00888700000001E2123241927211073
:1046600010160E0000000000000000000000000016
:10467000000000E0180402000000000718204000BD
:1046800000020418E00000000040201807000000AD
:10469000404080F0804040000202010F0102020011
:1046A000000000F0000000000101011F01010100F5
:1046B000000000000000000080B07000000000005A
:1046C00000000000000000000001010101010101E3
:1046D000000000000000000000303000000000007A
:1046E000000000008060180400601806010000004F
:1046F00000E010080810E000000F102020100F004C
:10470000001010F8000000000020203F20200000D2
:10471000007008080888700000302824222130002A
:1047200000300888884830000018202020110E0032
:104730000000C02010F8000000070424243F2400DB
:1047400000F80888880808000019212020110E00B0
:1047500000E0108888180000000F112020110E00C2
:1047600000380808C83808000000003F00000000BA
:104770000070880808887000001C222121221C007B
:1047800000E010080810E0000000312222110F00A4
:10479000000000C0C0000000000000303000000039
:1047A00000000080000000000000806000000000A9
:1047B00000008040201008000001020408102000C2
:1047C000404040404040400004040404040404000D
:1047D00000081020408000000020100804020100A2
:1047E000007048080808F0000000003036010000A2
:1047F000C030C828E810E0000718272423140B0055
:104800000000C038E0000000203C230202273820CE
:1048100008F8888888700000203F202020110E00B2
:10482000C0300808080838000718202020100800A9
:1048300008F808080810E000203F202020100F0092
:1048400008F88888E8081000203F2020232018005E
:1048500008F88888E8081000203F200003000000C6
:10486000C03008080838000007182020221E020067
:1048700008F808000008F808203F210101213F2026
:10488000000808F8080800000020203F2020000051
:1048900000000808F8080800C08080807F00000041
:1048A00008F888C028180800203F2001263820007A
:1048B00008F8080000000000203F202020203000E1
:1048C00008F8F800F8F80800203F003F003F2000FB
:1048D00008F830C00008F808203F200007183F0003
:1048E000E01008080810E0000F10202020100F0032
:1048F00008F808080808F000203F21010101000025
:10490000E01008080810E0000F18242438504F0069
:1049100008F8888888887000203F2000030C302029
:1049200000708808080838000038202121221C0067
:10493000180808F8080818000000203F20000000B0
:1049400008F808000008F808001F202020201F0099
:104950000878880000C83808000007380E010000F9
:10496000F80800F80008F800033C0700073C0300C3
:10497000081868808068180820302C03032C302029
:104980000838C800C83808000000203F2000000098
:1049900010080808C83808002038262120201800F0
:1049A000000000FE020202000000007F40404000C4
:1049B000000C30C000000000000000010638C000FC
:1049C00000020202FE000000004040407F000000A4
:1049D00000000402020204000000000000000000C9
:1049E00000000000000000008080808080808080C7
:1049F00000020204000000000000000000000000AF
:104A000000008080808000000019242222223F20A4
:104A100008F8008080000000003F112020110E00E7
:104A20000000008080800000000E11202020110076
:104A3000000000808088F800000E112020103F2028
:104A40000000808080800000001F222222221300AC
:104A5000008080F0888888180020203F20200000F7
:104A60000000808080808000006B949494936000AC
:104A700008F8008080800000203F210000203F20B7
:104A800000809898000000000020203F20200000B7
:104A9000000000809898000000C08080807F0000A7
:104AA00008F8000080808000203F24022D30200084
:104AB000000808F8000000000020203F202000002F
:104AC0008080808080808000203F20003F20003F49
:104AD0008080008080800000203F210000203F2057
:104AE0000000808080800000001F202020201F0008
:104AF000808000808000000080FFA12020110E0037
:104B00000000008080808000000E112020A0FF8027
:104B1000808080008080800020203F2120000100D4
:104B20000000808080808000003324242424190029
:104B3000008080E0808000000000001F2020000036
:104B40008080000000808000001F202020103F2077
:104B5000808080000080808000010E300806010007
:104B600080800080008080800F300C030C300F00AC
:104B700000808000808080000020312E0E312000D7
:104B8000808080000080808080818E701806010007
:104B900000808080808080000021302C2221300025
:104BA00000000000807C020200000000003F404046
:104BB00000000000FF00000000000000FF000000F7
:104BC0000002027C800000000040403F0000000026
:104BD00000060101020204040000000000000000C1
:104BE00000000000000000000000000000000000C5
:104BF00000000000000000000000000000000000B5
:104C0000000000000000000000F0F0F000000000D4
:104C10000000000000017F01000000000000000013
:104C2000001C1C1C0000000000008060301C8C6018
:104C3000301C0C000000000000000000000000001C
:104C4000000000000000000000000000000000E084
:104C50000000000000E000000086E69F8686868651
:104C6000E69F860000011F01010101011F010100F3
:104C7000000080C06020F820E0C0000000000307B2
:104C80000C18FF70E18100000000070F10107F106A
:104C90000F0700008060206080000000E02000001E
:104CA0000F3020309F70DC371030C0000000100E35
:104CB00003000718101807000000C02020E0C00003
:104CC0000000000080E01F38E88703C43C040000B7
:104CD000070F1810100B070D1010080000808C4CE7
:104CE000380000000000000000000000000000008C
:104CF00000000000000000000000000000000000B4
:104D000000000000000080E0300804000000000007
:104D100000FEFF0100000000000000000000030F83
:104D20001820400000040830E0800000000000006F
:104D30000000000001FFFE000000000000402018FD
:104D40000F03000000000000000000000000C00091
:104D500000000000004266663C18FF183C66664290
:104D60000000000000000300000000000000000040
:104D70000000800000000000001010101010FF1054
:104D800010101010000000000000030000000000E0
:104D90000000000000000000000000000000000013
:104DA000000000000000000000808C4C3800000073
:104DB00000000000000000000000000000000000F3
:104DC0000010101010101010101010000000000043
:104DD00000000000000000000000000000000000D3
:104DE00000000000000000000000000000000000C3
:104DF00000001C1C1C00000000000000000000005F
:104E000000000000E0380C000000000080701C036F
:104E1000000000000060380E0100000000000000EB
:104E2000000080C060202060C080000000FEFF0104
:104E30000000000001FFFE000001070E181010180E
:104E40000E0701000000808080C0E000000000002C
:104E50000000000000FFFF00000000000000101034
:104E6000101F1F1010100000008040202020206024
:104E7000C080000000030300804020381F070000AE
:104E8000001C1A1918181818181F00000080C020DC
:104E9000202060C080000000000303001010182FC5
:104EA000E780000000070F10101010180F07000017
:104EB000000000000000C0E0F000000000C0B0886A
:104EC000868180FFFF808000000000000010101F1E
:104ED0001F1010000000E060606060606060000013
:104EE00000003F1008080818F0E0000000070B1051
:104EF0001010101C0F030000000080C04020202074
:104F0000E0C0000000FCFF211008080818F0E000D5
:104F10000001070C18101010080F03000000C0E07B
:104F20006060606060E06000000003000000E01866
:104F30000700000000000000001F1F00000000002C
:104F40000080C0602020202060C080000087EF2CFF
:104F50001818303068CF830000070F0810101010A9
:104F6000180F07000000C0C020202020C0800000D3
:104F7000001F3F604040402010FFFE0000000C1C5E
:104F8000101010080F0300000000000000000000D7
:104F90000000000000000000000E0E0E00000000E7
:104FA00000000000001C1C1C0000000000000000AD
:104FB000000000000000000000000000000C0C00D9
:104FC0000000000000000000005838000000000051
:104FD00000000000000000804020100000001028A9
:104FE00044820100000000000000000000000102F7
:104FF0000408100000000000000000000000000095
:105000000084848484848484848484000000000078
:1050100000000000000000000000102040800000A0
:105020000000000000000000000001824428100081
:1050300000001008040201000000000000C0202051
:105040001010101030E0C0000003030000F0100842
:105050000C070300000000001C1C1C0000000000E6
:10506000000000C0406020202040C00000FCFF0184
:10507000F00E03C1FE03807F0001070E081111101E
:10508000110904020000000080E0E00000000000C0
:105090000000807C4340477FF880000010181F10FC
:1050A00000000000131F1C1020E0E02020202060E2
:1050B000C080000000FFFF10101010182FE78000C4
:1050C000101F1F1010101010180F0700000080C0D4
:1050D000402020202060E00000FCFF0100000000D4
:1050E000000001000001070E181010100804030052
:1050F00020E0E02020202040C080000000FFFF00D2
:105100000000000001FFFE00101F1F101010180803
:105110000E07010020E0E0202020202020608000F9
:1051200000FFFF101010107C00000000101F1F1067
:10513000101010101018060020E0E0202020202081
:105140006060800000FFFF101010107C0000010064
:10515000101F1F100000000000000000000080C0B1
:105160006020202040E0000000FCFF0100004040E3
:10517000C0C140400001070E181010100F0F0000B2
:1051800020E0E0200000000020E0E02000FFFF1011
:105190001010101010FFFF00101F1F100000000063
:1051A000101F1F100000202020E0E0202020000021
:1051B0000000000000FFFF000000000000001010D1
:1051C000101F1F101010000000000000202020E021
:1051D000E020202000000000000000FFFF00000091
:1051E0000060E0808080C07F3F00000020E0E02081
:1051F000000020A06020200000FFFF30187CE3C0EA
:1052000000000000101F1F10000001131F1C1810C9
:1052100020E0E020000000000000000000FFFF0090
:105220000000000000000000101F1F1010101010E0
:105230001018060020E0E0E000000000E0E0E020C0
:1052400000FF013FFEC0E01E01FFFF00101F100025
:10525000031F0300101F1F1020E0E0C0000000002B
:105260000020E02000FF0003071C78E08000FF0022
:10527000101F100000000000030F1F00000080C07E
:1052800060202060C080000000FEFF0100000000E0
:1052900000FFFE000001070E181010180C07010097
:1052A00020E0E0202020202060C0800000FFFF20C0
:1052B00020202020301F0F00101F1F1000000000B2
:1052C00000000000000080C060202060C08000005E
:1052D00000FEFF010000000000FFFE000001070EBD
:1052E0001111133C7C67210020E0E02020202020C9
:1052F00060C0800000FFFF101030F0D0080F0700E2
:10530000101F1F10000000030F1C10100080C06051
:10531000202020204040E00000070F0C18183030FB
:1053200060E08100001F0C0810101010180F07001B
:105330008060202020E0E02020206080010000002C
:1053400000FFFF000000000100000000101F1F1000
:105350000000000020E0E020000000000020E0202D
:1053600000FFFF00000000000000FF0000070F1812
:1053700010101010100807002060E0E0200000006E
:1053800020E060200000077FF88000807C030000A0
:1053900000000000071F1C070000000020E0E020C4
:1053A00000E0E0200020E0200007FFF8E01FFFFC05
:1053B000E01F00000000031F0300011F03000000A6
:1053C000002060E0A0000020E0602000000000035A
:1053D0008F7CF8C6010000000010181E1300011792
:1053E0001F1810002060E0E02000000020E0602096
:1053F000000001073EF8E018070000000000001060
:10540000101F1F101000000000806020202020A02E
:10541000E0E0200000000000C0F03E0F03000000AC
:1054200000101C1F171010101018060000000000BC
:1054300000FC0404040404000000000000FF00005D
:105440000000000000000000007F4040404040009D
:10545000000010E00000000000000000000000005C
:10546000031C60800000000000000000000000033A
:105470000C70800000000404040404FC0000000020
:1054800000000000000000FF00000000000040409D
:105490004040407F0000000000000010080C040C99
:1054A00008100000000000000000000000000000E4
:1054B00000000000000000000000000000000000EC
:1054C00000000000000000000000000000000000DC
:1054D00000000000808080808080808080808080CC
:1054E00000000004040808000000000000000000A4
:1054F00000000000000000000000000000000000AC
:10550000000000000000000000000000000000009B
:10551000000098D844642424FCF80000000F1F18F1
:10552000101010081F1F10180020E0F000000000ED
:10553000000000000000FFFF180804040CF8F00051
:1055400000001F0F18101010180F030000000000BB
:10555000000000000000000000E0F8180404043C13
:105560003800000000030F0C101010100806000097
:105570000000000000000020E0F0000000E0F81C47
:1055800004040408FFFF000000030F1810101008A7
:105590001F0F0800000000000000000000000000D5
:1055A0000000E0F8484444444C7870000000030FC9
:1055B0000C181010100804000000000080C06020CB
:1055C00020E0C00000040404FFFF04040404000001
:1055D000000010101F1F101010000000000000003D
:1055E0000000000000000000000070F88C04048C33
:1055F000F874040C007076CF8D8D8D89C87870009A
:105600000020E0F000000000000000000000FFFFAC
:1056100008040404FCF8000000101F1F1000001014
:105620001F1F10000000000000606000000000006C
:105630000000040404FCFC00000000000000101046
:10564000101F1F101010000000000000000000607C
:105650006000000000000000040404FCFC000000E6
:105660000000C0C08080C07F3F0000000020E0F04C
:1056700000000000000000000000FFFF80C0F41CDC
:105680000404000000101F1F1100031F1C10100055
:105690000000202020E0F0000000000000000000DA
:1056A00000FFFF000000000000001010101F1F107E
:1056B00010100000000000000000000000000000CA
:1056C00004FCFC0804FCFC0804FCFC00101F1F1078
:1056D000001F1F10001F1F1000000000000000002E
:1056E000000000000004FCFC08080404FCF80000B2
:1056F00000101F1F100000101F1F100000000000EE
:10570000000000000000000000E0F0180C04040C91
:1057100018F0E00000030F0C101010100C0F030025
:105720000000000000000000000000000004FCFC7D
:10573000080404040CF8F0000080FFFF88901010AB
:105740001C0F03000000000000000000000000002B
:1057500000E0F81C04040408F8FC000000030F1823
:1057600010109088FFFF8000000000000000000083
:1057700000000000040404FCFC100804040C0C00ED
:105780001010101F1F10101000000000000000007B
:10579000000000000000000000003078CCC48484C9
:1057A000840C1C0000001E1810101011190F0600A8
:1057B0000000000000C0000000000000000404041D
:1057C000FFFF040404000000000000000F1F101081
:1057D000100C0000000000000000000000000000AD
:1057E0000004FCFE00000004FCFE000000000F1F8F
:1057F000181010081F0F0800000000000000000033
:105800000000000000040C3CFCC40000C43C0C047C
:1058100000000000010F1E0E01000000000000004B
:105820000000000000000000043CFCC400E47CFC1C
:1058300084807C040000071F070000071F0700008A
:105840000000000000000000000000000004041C34
:105850007CE4C0341C0404000010101C1601131F4B
:105860001C181000000000000000000000000000F4
:1058700000040C3CFCC400C43C0404000000C080D4
:10588000C1370E0100000000000000000000000011
:105890000000000000001C0404C4F47C1C04000090
:1058A0000000101C1F17111010180E00000000003F
:1058B000000000F80C04000000000000001028EFB9
:1058C00000000000000000000000003F60400000F9
:1058D000000000000000FF000000000000000000C9
:1058E0000000FF0000000000000000000000FF00BA
:1058F000000000000000040CF800000000000000A0
:1059000000000000EF2810000000000000004060D0
:105910003F0000000000000000180602020408100A
:1059200020203008000000000000000000000000FF
:10593000000000000000000000000000008060F88F
:10594000074020180F08C80808281800010000FFA9
:1059500000100C0340807F00010618001010F01F9B
:1059600010F000808282E2928A8680004022150830
:105970001661000040807F0000000000202020FE13
:105980002020FF202020FF20202020000000007F7A
:10599000404047444444474040400000000000FE6F
:1059A000929292FE929292FE0000000008080484F7
:1059B000621E010001FE020404080800000000C08D
:1059C00080808080808080FC84808080808080C017
:1059D000C0000000000000FF7F404040404040FF0A
:1059E00040404040404040FF7F0000000000000079
:1059F000000000000000007F7000000000000000B8
:105A00000000000000000000000000000000000096
:105A1000000000FCF8000000000000000000000092
:105A20000000000000000000FFFE0202020202026D
:105A3000020202FFFF020202020202020202FF034E
:105A400000000000000000001F1F04040404040400
:105A5000040404FFFF0404040404040404041F00F9
:105A60000000000000000000000000000000000036
:105A70000000007F3F000000000000000000000068
:105A80000000000000000000000000000000000016
:105A90000000000000000000000000000000000006
:105AA00000F8F8F0F0702000000000000000000096
:105AB00000000000000000000000000000000000E6
:105AC0000000000000000000000000008000000056
:105AD00000000000000000000000000000000000C6
